{
  "contractName": "certificate",
  "abi": [
    {
      "constant": false,
      "inputs": [],
      "name": "Notary",
      "outputs": [],
      "payable": false,
      "stateMutability": "nonpayable",
      "type": "function"
    },
    {
      "constant": false,
      "inputs": [
        {
          "name": "hash",
          "type": "bytes32"
        }
      ],
      "name": "addDocHash",
      "outputs": [],
      "payable": false,
      "stateMutability": "nonpayable",
      "type": "function"
    },
    {
      "constant": true,
      "inputs": [
        {
          "name": "hash",
          "type": "bytes32"
        }
      ],
      "name": "findDocHash",
      "outputs": [
        {
          "name": "",
          "type": "uint256"
        },
        {
          "name": "",
          "type": "uint256"
        }
      ],
      "payable": false,
      "stateMutability": "view",
      "type": "function"
    }
  ],
  "bytecode": "0x6060604052341561000f57600080fd5b6101bf8061001e6000396000f300606060405260043610610057576000357c0100000000000000000000000000000000000000000000000000000000900463ffffffff168063133a48f31461005c5780634cf00d3f14610083578063e6885aad146100c5575b600080fd5b341561006757600080fd5b6100816004808035600019169060200190919050506100da565b005b341561008e57600080fd5b6100a860048080356000191690602001909190505061012f565b604051808381526020018281526020019250505060405180910390f35b34156100d057600080fd5b6100d8610177565b005b6100e2610179565b604080519081016040528042815260200143815250905080600080846000191660001916815260200190815260200160002060008201518160000155602082015181600101559050505050565b60008060008084600019166000191681526020019081526020016000206000015460008085600019166000191681526020019081526020016000206001015491509150915091565b565b6040805190810160405280600081526020016000815250905600a165627a7a72305820aa1c5c4faca9e2be3928c50882e934967c92021cce1ff06fc874823faa618d7b0029",
  "source": "pragma solidity ^0.4.4;\n\ncontract certificate {\n    struct Record {\n        uint timestamp;\n        uint block_number;\n    }\n\n    mapping (bytes32 => Record) private docHashes;\n\n    function Notary() public {\n        // constructor\n    }\n\n    function addDocHash (bytes32 hash) public {\n        Record memory newRecord = Record(now, block.number);\n        docHashes[hash] = newRecord;\n    }\n\n    function findDocHash (bytes32 hash) public constant returns(uint, uint) {\n        return (docHashes[hash].timestamp, docHashes[hash].block_number);\n    }\n}",
  "sourcePath": "/Users/thineswar-air/Documents/my_FYP/contracts/certificate.sol",
  "compiler": {
    "name": "solc",
    "version": "0.4.20+commit.3155dd80.Emscripten.clang"
  },
  "schemaVersion": "3.3.2",
  "updatedAt": "2020-12-02T01:55:16.149Z",
  "networkType": "ethereum",
  "devdoc": {
    "methods": {}
  },
  "userdoc": {
    "methods": {}
  }
}